:100000000C945A000C9498000C9498000C9498004E
:100010000C9498000C9498000C9498000C94980000
:100020000C9498000C9498000C9498000C949800F0
:100030000C9498000C947A000C9498000C949800FE
:100040000C9498000C9498000C9498000C949800D0
:100050000C9498000C9498000C9498000C949800C0
:100060000C9498000C9498000C9498000C949800B0
:100070000C9498000C9498000C9498000C949800A0
:100080000C9498000C9498000C9498000C94980090
:100090000C9498000C9498000C9498000C94980080
:1000A0000C9498000C9498000C9498000C94980070
:1000B0000C94980011241FBECFEFD8E0DEBFCDBF57
:0C00C0000E9466000C948D00F894FFCFA5
:1000CC0080E284B9E1E8F0E0808184608083EFE62F
:1000DC00F0E08081816080838CE29FEC90938500BE
:0800EC00809384007894FFCF9B
:1000F4008F938FB78F939F938CE29FEC909385009F
:100104008093840095B180E2892785B99F918F916E
:060114008FBF8F911895CA
:10011A00EC010E949D000E949C00CE010E949E005C
:06012A00CE010E949A00C4
:040130000C9400002B
:040134000E946400C1
:02013800089528
:02013A00089526
:02013C00089524
:00000001FF
