:100000000C945A000C947F000C947F000C947F0099
:100010000C947F000C947F000C947F000C947F0064
:100020000C947F000C947F000C947F000C947F0054
:100030000C947F000C947F000C947F000C947F0044
:100040000C947F000C947F000C947F000C947F0034
:100050000C947F000C947F000C947F000C947F0024
:100060000C947F000C947F000C947F000C947F0014
:100070000C947F000C947F000C947F000C947F0004
:100080000C947F000C947F000C947F000C947F00F4
:100090000C947F000C947F000C947F000C947F00E4
:1000A0000C947F000C947F000C947F000C947F00D4
:1000B0000C947F0011241FBECFEFD8E0DEBFCDBF70
:0C00C0000E9466000C947400F894FFCFBE
:1000CC0080E284B9E1E8F0E0808184608083EFE62F
:0C00DC00F0E08081816080837894FFCF89
:1000E800EC010E9484000E948300CE010E948500DA
:0600F800CE010E94810010
:0400FE000C9400005E
:040102000E946400F3
:0201060008955A
:02010800089558
:02010A00089556
:00000001FF
