:100000000C945A000C9488000C9488000C9488007E
:100010000C9488000C9488000C9488000C94880040
:100020000C9488000C9488000C9488000C94880030
:100030000C9488000C9488000C9488000C94880020
:100040000C9488000C9488000C9488000C94880010
:100050000C9488000C9488000C9488000C94880000
:100060000C9488000C9488000C9488000C948800F0
:100070000C9488000C9488000C9488000C948800E0
:100080000C9488000C9488000C9488000C948800D0
:100090000C9488000C9488000C9488000C948800C0
:1000A0000C9488000C9488000C9488000C948800B0
:1000B0000C94880011241FBECFEFD8E0DEBFCDBF67
:0C00C0000E9466000C947D00F894FFCFB5
:1000CC00259A27982D9A2FEF83ED90E321508040AD
:1000DC009040E1F700C000002D982FEF83ED90E3E6
:0E00EC00215080409040E1F700C00000EBCFB3
:1000FA00EC010E948D000E948C00CE010E948E00AD
:06010A00CE010E948A00F4
:040110000C9400004B
:040114000E946400E1
:02011800089548
:02011A00089546
:02011C00089544
:00000001FF
