:100000000C945A000C9476000C9476000C947600B4
:100010000C9476000C9476000C9476000C94760088
:100020000C9476000C9476000C9476000C94760078
:100030000C9476000C9476000C9476000C94760068
:100040000C9476000C9476000C9476000C94760058
:100050000C9476000C9476000C9476000C94760048
:100060000C9476000C9476000C9476000C94760038
:100070000C9476000C9476000C9476000C94760028
:100080000C9476000C9476000C9476000C94760018
:100090000C9476000C9476000C9476000C94760008
:1000A0000C9476000C9476000C9476000C947600F8
:1000B0000C94760011241FBECFEFD8E0DEBFCDBF79
:0C00C0000E9471000C946600F894FFCFC1
:1000CC00EC010E947B000E947A00CE010E947C0011
:0600DC00CE010E94780035
:0A00E200259A85B5856085BDFFCF26
:0400EC000C94000070
:0400F0000E94640006
:0200F40008956D
:0200F60008956B
:0200F800089569
:00000001FF
