:100000000C945A000C947B000C947B000C947B00A5
:100010000C947B000C947B000C947B000C947B0074
:100020000C947B000C947B000C947B000C947B0064
:100030000C947B000C947B000C947B000C947B0054
:100040000C947B000C947B000C947B000C947B0044
:100050000C947B000C947B000C947B000C947B0034
:100060000C947B000C947B000C947B000C947B0024
:100070000C947B000C947B000C947B000C947B0014
:100080000C947B000C947B000C947B000C947B0004
:100090000C947B000C947B000C947B000C947B00F4
:1000A0000C947B000C947B000C947B000C947B00E4
:1000B0000C947B0011241FBECFEFD8E0DEBFCDBF74
:0C00C0000E9471000C946600F894FFCFC1
:1000CC00EC010E9480000E947F00CE010E94810002
:0600DC00CE010E947D0030
:1000E20080E284B98FE08AB91F9902C02D9AFCCFB1
:0400F2002D98FACF7C
:0400F6000C94000066
:0400FA000E946400FC
:0200FE00089563
:02010000089560
:0201020008955E
:00000001FF
