:100000000C945A000C9488000C9488000C9488007E
:100010000C9488000C9488000C9488000C94880040
:100020000C9488000C9488000C9488000C948A002E
:100030000C948C000C9488000C9488000C9488001C
:100040000C9488000C9488000C9488000C94880010
:100050000C9488000C9488000C9488000C94880000
:100060000C9488000C9488000C9488000C948800F0
:100070000C9488000C9488000C9488000C948800E0
:100080000C9488000C9488000C9488000C948800D0
:100090000C9488000C9488000C9488000C948800C0
:1000A0000C9488000C9488000C9488000C948800B0
:1000B0000C94880011241FBECFEFD8E0DEBFCDBF67
:0C00C0000E9466000C947D00F894FFCFB5
:1000CC00259AE1E8F0E0808183608083EFE6F0E040
:1000DC00808186608083E8E8F0E08FE193E0918393
:0E00EC0080838FE891E0918380837894FFCF2A
:1000FA00EC010E9491000E949000CE010E949200A1
:06010A00CE010E948E00F0
:040110000C9400004B
:040114002D9A189573
:040118002D98189571
:04011C000E946400D9
:02012000089540
:0201220008953E
:0201240008953C
:00000001FF
