:100000000C945A000C948B000C948B000C948B0075
:100010000C948B000C948B000C948B000C948B0034
:100020000C948B000C948B000C948B000C948B0024
:100030000C948B000C948B000C948B000C948B0014
:100040000C948B000C948B000C948B000C948B0004
:100050000C948B000C948B000C948B000C948B00F4
:100060000C948B000C948B000C948B000C948B00E4
:100070000C948B000C948B000C948B000C948B00D4
:100080000C948B000C948B000C948B000C948B00C4
:100090000C948B000C948B000C948B000C948B00B4
:1000A0000C948B000C948B000C948B000C948B00A4
:1000B0000C948B0011241FBECFEFD8E0DEBFCDBF64
:0C00C0000E9466000C948000F894FFCFB2
:1000CC0080E284B983E08AB980E285B92FEF33ED01
:1000DC0090E3215030409040E1F700C000002D9893
:1000EC002FEF33ED90E3215030409040E1F700C00A
:0400FC000000EBCF46
:10010000EC010E9490000E948F00CE010E9491009D
:06011000CE010E948D00EB
:040116000C94000045
:04011A000E946400DB
:02011E00089542
:02012000089540
:0201220008953E
:00000001FF
