:100000000C945A000C9493000C9491000C9495005D
:100010000C9491000C9491000C9491000C9491001C
:100020000C9491000C9491000C9491000C9491000C
:100030000C9491000C9491000C9491000C949100FC
:100040000C9491000C9491000C9491000C949100EC
:100050000C9491000C9491000C9491000C949100DC
:100060000C9491000C9491000C9491000C949100CC
:100070000C9491000C9491000C9491000C949100BC
:100080000C9491000C9491000C9491000C949100AC
:100090000C9491000C9491000C9491000C9491009C
:1000A0000C9491000C9491000C9491000C9491008C
:1000B0000C94910011241FBECFEFD8E0DEBFCDBF5E
:0C00C0000E9466000C948600F894FFCFAC
:1000CC00259AE8E6F0E0808181608083EBE6F0E041
:1000DC00808180688083E9E6F0E0808182608083A3
:1000EC00E89A789491E08BB189278BB92FEF33ED97
:1000FC0080E3215030408040E1F700C00000F3CF96
:10010C00EC010E949A000E949900CE010E949B0073
:06011C00CE010E949700D5
:040122000C94000039
:040126002D98189563
:04012A002D9A18955D
:04012E000E946400C7
:0201320008952E
:0201340008952C
:0201360008952A
:00000001FF
