:100000000C945A000C9493000C9493000C9493005D
:100010000C9493000C9493000C9493000C94930014
:100020000C9493000C9493000C9493000C94930004
:100030000C9493000C9493000C9493000C949300F4
:100040000C9493000C9493000C9493000C949300E4
:100050000C9493000C9493000C9493000C949300D4
:100060000C9493000C9493000C9493000C949300C4
:100070000C9493000C9493000C9493000C949300B4
:100080000C9493000C9493000C9493000C949300A4
:100090000C9493000C9493000C9493000C94930094
:1000A0000C9493000C9493000C9493000C94930084
:1000B0000C94930011241FBECFEFD8E0DEBFCDBF5C
:0C00C0000E948D000C948200F894FFCF89
:1000CC0080E08BB91F99FECF2FEF32E597E02150DE
:1000DC0030409040E1F700C000001F9BFECF2FEF97
:1000EC0032E597E0215030409040E1F700C000002D
:0800FC008F5F803131F7E4CF82
:10010400EC010E9498000E949700CE010E94990081
:06011400CE010E949500DF
:0C011A0080E284B98FE08AB90E94660080
:040126000C94000035
:04012A000E946400CB
:02012E00089532
:02013000089530
:0201320008952E
:00000001FF
