:100000000C9460000C94A9010C94A9010C94A90112
:100010000C94A9010C94A9010C94A9010C94A901B8
:100020000C94A9010C94A9010C94A9010C94A901A8
:100030000C94A9010C94A9010C94A9010C94A90198
:100040000C94A9010C94A9010C94A9010C94A90188
:100050000C94A9010C94A9010C94A9010C94A90178
:100060000C94A9010C94A9010C94A9010C94A90168
:100070000C94A9010C94A9010C94A9010C94A90158
:100080000C94A9010C94A9010C94A9010C94A90148
:100090000C94A9010C94A9010C94A9010C94A90138
:1000A0000C94A9010C94A9010C94A9010C94A90128
:1000B0000C94A901010001130003600113011580D4
:1000C00011241FBECFEFD8E0DEBFCDBFE4EBF0E0E0
:1000D00040E017C0B591A59135912591059107FD97
:1000E0000CC095918591EF01F92FE82F05900D92A5
:1000F000A217B307D9F7FE0104C01D92A217B307D8
:10010000E1F7E03CF40731F70E9424010C949901D7
:04011000F894FFCF91
:10011400486F6C61204D756E646F004D6963726F3A
:05012400636869700032
:10012A00389A399A549A559A569A579A40984198B1
:10013A005C985D985E985F982FEF89EF90E0215068
:10014A0080409040E1F700C00000409883E00E94A0
:10015A003B010E946C018FEB9DE50197F1F700C00E
:10016A00000083E00E943B010E946C0183E00E9430
:10017A003B010E946C0182E00E943B010E946C01DB
:10018A0082E00E943B010E946C018CE00E943B01CC
:10019A000E946C0180E00E943B010E946C018CE08D
:1001AA000E943B010E946C0180E00E943B010E9478
:1001BA006C0181E00E943B010E946C0180E00E9478
:1001CA003B010E946C0186E00E943B010E946C0187
:1001DA00E0911101F091120180E091E09183808316
:0201EA00089576
:1001EC006F927F928F92CF92DF92EF926115710591
:1001FC008105E9F04423D9F03B01882E6B01E82EF0
:10020C004150842F90E00196680E791E811C97FD59
:10021C008A94F6018491E7FC80810E945C018FEF47
:10022C00C81AD80AE80AC614D704E80491F7EF9064
:0C023C00DF90CF908F907F906F9008951E
:100248000E94950060E080E00E948A014AE064E133
:1002580071E080E00E94F60061E080E00E948A017F
:0E02680049E06FE171E080E00E94F600FFCFF8
:1002760080FF5C9881FF5D9882FF5E9883FF5F98A0
:1002860080FD5C9A81FD5D9A82FD5E9A83FD5F9A90
:020296000895C9
:10029800CF93C82F409882958F700E943B010E948F
:1002A8006C018C2F0E943B010E946C01CF91089534
:1002B800CF93C82F409A82958F700E943B010E946D
:1002C8007B018C2F0E943B010E947B01CF910895F6
:1002D800419A8FE99FE00197F1F700C0000041982B
:0E02E8008FE99FE00197F1F700C00000089534
:1002F600419A8FE891E00197F1F700C0000041981C
:0E0306008FE891E00197F1F700C00000089524
:10031400623031F0633031F0613029F4805C03C025
:0E0324008C5E01C08C5A80680E944C010895C6
:10033200EC010E94AE010E94AD01CE010E94AF010C
:06034200CE010E94AB0198
:0A0348000E945C0180E090E008953F
:040352000C94000007
:040356000E94880079
:02035A00089504
:02035C00089502
:02035E00089500
:1003600003000000000000000000000000A40100E5
:01037000008C
:02037100130176
:00000001FF
