:100000000C9460000C94E5010C94E5010C94E5015E
:100010000C94E5010C94E5010C94E5010C94E501C8
:100020000C94E5010C94E5010C94E5010C94E501B8
:100030000C94E5010C94E5010C94E5010C94E501A8
:100040000C94E5010C94E5010C94E5010C94E50198
:100050000C94E5010C94E5010C94E5010C94E50188
:100060000C94E5010C94E5010C94E5010C94E50178
:100070000C94E5010C94E5010C94E5010C94E50168
:100080000C94E5010C94E5010C94E5010C94E50158
:100090000C94E5010C94E5010C94E5010C94E50148
:1000A0000C94E5010C94E5010C94E5010C94E50138
:1000B0000C94E501010001130003D8011301158020
:1000C00011241FBECFEFD8E0DEBFCDBFE4EBF0E0E0
:1000D00040E017C0B591A59135912591059107FD97
:1000E0000CC095918591EF01F92FE82F05900D92A5
:1000F000A217B307D9F7FE0104C01D92A217B307D8
:10010000E1F7E03CF40731F70E94F6000C94D501CA
:04011000F894FFCF91
:10011400486F6C61204D756E646F004D6963726F3A
:05012400636869700032
:10012A00389A399A549A559A569A579A40984198B1
:10013A005C985D985E985F982FEF89EF90E0215068
:10014A0080409040E1F700C00000409883E00E94A0
:10015A0059010E948A018FEB9DE50197F1F700C0D2
:10016A00000083E00E9459010E948A0183E00E94F4
:10017A0059010E948A0182E00E9459010E948A0163
:10018A0082E00E9459010E948A018CE00E94590172
:10019A000E948A0180E00E9459010E948A018CE033
:1001AA000E9459010E948A0180E00E9459010E941E
:1001BA008A0181E00E9459010E948A0180E00E941E
:1001CA0059010E948A0186E00E9459010E948A010F
:1001DA00E0911101F091120180E091E09183808316
:0201EA00089576
:1001EC000E94950060E080E00E94C6014AE064E154
:1001FC0071E080E00E942B0161E080E00E94C6016A
:10020C0049E06FE171E080E00E942B01CFE081E0DA
:10021C000E94B7012FEF83ED90E321508040904076
:10022C00E1F700C00000C15091F7CFE081E00E94DF
:10023C00A8012FEF83ED90E3215080409040E1F72F
:0A024C0000C00000C15091F7E1CF9F
:100256006F927F928F92CF92DF92EF926115710526
:100266008105E9F04423D9F03B01882E6B01E82E85
:100276004150842F90E00196680E791E811C97FDEF
:100286008A94F6018491E7FC80810E947A018FEFBF
:10029600C81AD80AE80AC614D704E80491F7EF90FA
:0C02A600DF90CF908F907F906F900895B4
:1002B20080FF5C9881FF5D9882FF5E9883FF5F9864
:1002C20080FD5C9A81FD5D9A82FD5E9A83FD5F9A54
:0202D20008958D
:1002D400CF93C82F409882958F700E9459010E9435
:1002E4008A018C2F0E9459010E948A01CF9108959E
:1002F400CF93C82F409A82958F700E9459010E9413
:1003040099018C2F0E9459010E949901CF9108955F
:10031400419A8FE99FE00197F1F700C000004198EE
:0E0324008FE99FE00197F1F700C000000895F7
:10033200419A8FE891E00197F1F700C000004198DF
:0E0342008FE891E00197F1F700C000000895E8
:10035000CF93DF93882341F0D82FC0E088E10E943B
:0E0360006A01CF5FDC13FACFDF91CF910895D1
:10036E00CF93DF93882341F0D82FC0E08CE10E9419
:0E037E006A01CF5FDC13FACFDF91CF910895B3
:10038C00623031F0633031F0613029F4805C03C0AD
:0E039C008C5E01C08C5A80680E946A01089530
:1003AA00EC010E94EA010E94E901CE010E94EB01E0
:0603BA00CE010E94E701E4
:0A03C0000E947A0180E090E00895A9
:0403CA000C9400008F
:0403CE000E94880001
:0203D20008958C
:0203D40008958A
:0203D600089588
:1003D80003000000000000000000000000E0010031
:0103E8000014
:0203E9001301FE
:00000001FF
