:100000000C945A000C9471000C9471000C947100C3
:100010000C9471000C9471000C9471000C9471009C
:100020000C9471000C9471000C9471000C9471008C
:100030000C9471000C9471000C9471000C9471007C
:100040000C9471000C9471000C9471000C9471006C
:100050000C9471000C9471000C9471000C9471005C
:100060000C9471000C9471000C9471000C9471004C
:100070000C9471000C9471000C9471000C9471003C
:100080000C9471000C9471000C9471000C9471002C
:100090000C9471000C9471000C9471000C9471001C
:1000A0000C9471000C9471000C9471000C9471000C
:1000B0000C94710011241FBECFEFD8E0DEBFCDBF7E
:0C00C0000E9475000C946600F894FFCFBD
:1000CC00EC010E9477000E947600CE010E9478001D
:0600DC00CE010E9473003A
:0400E2000C9400007A
:0400E6000E94640010
:0200EA00FFCF46
:0200EC00089575
:0200EE00089573
:0200F000089571
:00000001FF
