:100000000C945A000C94A6000C94A6000C94A60024
:100010000C94A6000C94A6000C94A6000C94A600C8
:100020000C94A6000C94A6000C94A6000C94A600B8
:100030000C94A6000C94A6000C94A6000C94A600A8
:100040000C94A6000C94A6000C94A6000C94A60098
:100050000C94A6000C94A6000C94A6000C94A60088
:100060000C94A6000C94A6000C94A6000C94A60078
:100070000C94A6000C94A6000C94A6000C94A60068
:100080000C94A6000C94A6000C94A6000C94A60058
:100090000C94A6000C94A6000C94A6000C94A60048
:1000A0000C94A6000C94A6000C94A6000C94A60038
:1000B0000C94A60011241FBECFEFD8E0DEBFCDBF49
:0C00C0000E9466000C949300F894FFCF9F
:1000CC000E94810088E60E949E008FE60E949E009E
:1000DC008CE60E949E0081E60E949E008AE00E94AF
:1000EC009E002FEF83ED90E3215080409040E1F78C
:0600FC0000C00000E7CF88
:10010200519AE1ECF0E0808188608083E2ECF0E0DB
:1001120080818660808387E690E09093C50080931B
:04012200C400089578
:10012600EC010E94AB000E94AA00CE010E94AC0026
:06013600CE010E94A800AA
:10013C00E0ECF0E0908195FFFDCF8093C600089530
:04014C000C9400000F
:040150000E946400A5
:0201540008950C
:0201560008950A
:02015800089508
:00000001FF
