:100000000C945A000C94D6000C94D6000C94D60094
:100010000C94D6000C94D6000C94D6000C94D60008
:100020000C94D6000C94D6000C94D6000C94D600F8
:100030000C94D6000C94D6000C94D6000C94D600E8
:100040000C94D6000C94D6000C94D6000C94D600D8
:100050000C94D6000C94D6000C94D6000C94D600C8
:100060000C94D6000C94D6000C94D6000C94D600B8
:100070000C94D6000C94D6000C94D6000C94D600A8
:100080000C94D6000C94D6000C94D6000C94D60098
:100090000C94D6000C94D6000C94D6000C94D60088
:1000A0000C94D6000C94D6000C94D6000C94D60078
:1000B0000C94D60011241FBECFEFD8E0DEBFCDBF19
:0C00C0000E9466000C94CB00F894FFCF67
:1000CC0040E067E084E290E00E94910041E065E04E
:1000DC0084E290E00E94910041E065E085E290E0CE
:1000EC000E94AE002FEF83EC99E0215080409040AD
:1000FC00E1F700C0000040E065E085E290E00E947E
:10010C00AE002FEF83EC99E0215080409040E1F756
:06011C0000C00000E1CF6D
:1001220041110DC0FC01408121E030E002C0220FEC
:10013200331F6A95E2F720952423208308954130E6
:1001420059F4FC01408121E030E002C0220F331F4C
:0A0152006A95E2F7242B208308953C
:10015C0041110DC0FC01408121E030E002C0220FB2
:10016C00331F6A95E2F720952423208308954130AC
:10017C0059F4FC01408121E030E002C0220F331F12
:0A018C006A95E2F7242B2083089502
:10019600EC010E94DB000E94DA00CE010E94DC0026
:0601A600CE010E94D8000A
:0401AC000C940000AF
:0401B0000E94640045
:0201B4000895AC
:0201B6000895AA
:0201B8000895A8
:00000001FF
